{
  "_format": "hh3-artifact-1",
  "contractName": "BoxV1",
  "sourceName": "contracts/BoxV1.sol",
  "abi": [
    {
      "inputs": [],
      "stateMutability": "nonpayable",
      "type": "constructor"
    },
    {
      "inputs": [
        {
          "internalType": "address",
          "name": "target",
          "type": "address"
        }
      ],
      "name": "AddressEmptyCode",
      "type": "error"
    },
    {
      "inputs": [
        {
          "internalType": "address",
          "name": "implementation",
          "type": "address"
        }
      ],
      "name": "ERC1967InvalidImplementation",
      "type": "error"
    },
    {
      "inputs": [],
      "name": "ERC1967NonPayable",
      "type": "error"
    },
    {
      "inputs": [],
      "name": "FailedCall",
      "type": "error"
    },
    {
      "inputs": [],
      "name": "InvalidInitialization",
      "type": "error"
    },
    {
      "inputs": [],
      "name": "NotInitializing",
      "type": "error"
    },
    {
      "inputs": [
        {
          "internalType": "address",
          "name": "owner",
          "type": "address"
        }
      ],
      "name": "OwnableInvalidOwner",
      "type": "error"
    },
    {
      "inputs": [
        {
          "internalType": "address",
          "name": "account",
          "type": "address"
        }
      ],
      "name": "OwnableUnauthorizedAccount",
      "type": "error"
    },
    {
      "inputs": [],
      "name": "UUPSUnauthorizedCallContext",
      "type": "error"
    },
    {
      "inputs": [
        {
          "internalType": "bytes32",
          "name": "slot",
          "type": "bytes32"
        }
      ],
      "name": "UUPSUnsupportedProxiableUUID",
      "type": "error"
    },
    {
      "anonymous": false,
      "inputs": [
        {
          "indexed": false,
          "internalType": "uint64",
          "name": "version",
          "type": "uint64"
        }
      ],
      "name": "Initialized",
      "type": "event"
    },
    {
      "anonymous": false,
      "inputs": [
        {
          "indexed": true,
          "internalType": "address",
          "name": "previousOwner",
          "type": "address"
        },
        {
          "indexed": true,
          "internalType": "address",
          "name": "newOwner",
          "type": "address"
        }
      ],
      "name": "OwnershipTransferred",
      "type": "event"
    },
    {
      "anonymous": false,
      "inputs": [
        {
          "indexed": true,
          "internalType": "address",
          "name": "implementation",
          "type": "address"
        }
      ],
      "name": "Upgraded",
      "type": "event"
    },
    {
      "inputs": [],
      "name": "UPGRADE_INTERFACE_VERSION",
      "outputs": [
        {
          "internalType": "string",
          "name": "",
          "type": "string"
        }
      ],
      "stateMutability": "view",
      "type": "function"
    },
    {
      "inputs": [],
      "name": "getValue",
      "outputs": [
        {
          "internalType": "uint256",
          "name": "",
          "type": "uint256"
        }
      ],
      "stateMutability": "view",
      "type": "function"
    },
    {
      "inputs": [],
      "name": "initialize",
      "outputs": [],
      "stateMutability": "nonpayable",
      "type": "function"
    },
    {
      "inputs": [],
      "name": "owner",
      "outputs": [
        {
          "internalType": "address",
          "name": "",
          "type": "address"
        }
      ],
      "stateMutability": "view",
      "type": "function"
    },
    {
      "inputs": [],
      "name": "proxiableUUID",
      "outputs": [
        {
          "internalType": "bytes32",
          "name": "",
          "type": "bytes32"
        }
      ],
      "stateMutability": "view",
      "type": "function"
    },
    {
      "inputs": [],
      "name": "renounceOwnership",
      "outputs": [],
      "stateMutability": "nonpayable",
      "type": "function"
    },
    {
      "inputs": [
        {
          "internalType": "address",
          "name": "newOwner",
          "type": "address"
        }
      ],
      "name": "transferOwnership",
      "outputs": [],
      "stateMutability": "nonpayable",
      "type": "function"
    },
    {
      "inputs": [
        {
          "internalType": "address",
          "name": "newImplementation",
          "type": "address"
        },
        {
          "internalType": "bytes",
          "name": "data",
          "type": "bytes"
        }
      ],
      "name": "upgradeToAndCall",
      "outputs": [],
      "stateMutability": "payable",
      "type": "function"
    },
    {
      "inputs": [],
      "name": "version",
      "outputs": [
        {
          "internalType": "uint256",
          "name": "",
          "type": "uint256"
        }
      ],
      "stateMutability": "pure",
      "type": "function"
    }
  ],
  "bytecode": "0x60a060405230608052348015610013575f5ffd5b5061001c610021565b6100d3565b7ff0c57e16840df040f15088dc2f81fe391c3923bec73e23a9662efc9c229c6a00805468010000000000000000900460ff16156100715760405163f92ee8a960e01b815260040160405180910390fd5b80546001600160401b03908116146100d05780546001600160401b0319166001600160401b0390811782556040519081527fc7f505b2f371ae2175ee4913f4499e1f2633a7b5936321eed1cdaeb6115181d29060200160405180910390a15b50565b6080516109d46100f95f395f818161035f0152818161038801526104cc01526109d45ff3fe608060405260043610610084575f3560e01c8063715018a611610057578063715018a6146100e65780638129fc1c146100fa5780638da5cb5b1461010e578063ad3cb1cc14610154578063f2fde38b14610191575f5ffd5b806320965255146100885780634f1ef286146100aa57806352d1902d146100bf57806354fd4d50146100d3575b5f5ffd5b348015610093575f5ffd5b505f545b6040519081526020015b60405180910390f35b6100bd6100b836600461083f565b6101b0565b005b3480156100ca575f5ffd5b506100976101cf565b3480156100de575f5ffd5b506001610097565b3480156100f1575f5ffd5b506100bd6101ea565b348015610105575f5ffd5b506100bd6101fd565b348015610119575f5ffd5b507f9016d09d72d40fdae2fd8ceac6b6234c7706214fd39c1cd1e609a0528c199300546040516001600160a01b0390911681526020016100a1565b34801561015f575f5ffd5b50610184604051806040016040528060058152602001640352e302e360dc1b81525081565b6040516100a19190610903565b34801561019c575f5ffd5b506100bd6101ab366004610938565b610312565b6101b8610354565b6101c1826103f8565b6101cb8282610400565b5050565b5f6101d86104c1565b505f51602061097f5f395f51905f5290565b6101f261050a565b6101fb5f610565565b565b7ff0c57e16840df040f15088dc2f81fe391c3923bec73e23a9662efc9c229c6a008054600160401b810460ff16159067ffffffffffffffff165f811580156102425750825b90505f8267ffffffffffffffff16600114801561025e5750303b155b90508115801561026c575080155b1561028a5760405163f92ee8a960e01b815260040160405180910390fd5b845467ffffffffffffffff1916600117855583156102b457845460ff60401b1916600160401b1785555b6102bd336105d5565b6102c56105e6565b831561030b57845460ff60401b19168555604051600181527fc7f505b2f371ae2175ee4913f4499e1f2633a7b5936321eed1cdaeb6115181d29060200160405180910390a15b5050505050565b61031a61050a565b6001600160a01b03811661034857604051631e4fbdf760e01b81525f60048201526024015b60405180910390fd5b61035181610565565b50565b306001600160a01b037f00000000000000000000000000000000000000000000000000000000000000001614806103da57507f00000000000000000000000000000000000000000000000000000000000000006001600160a01b03166103ce5f51602061097f5f395f51905f52546001600160a01b031690565b6001600160a01b031614155b156101fb5760405163703e46dd60e11b815260040160405180910390fd5b61035161050a565b816001600160a01b03166352d1902d6040518163ffffffff1660e01b8152600401602060405180830381865afa92505050801561045a575060408051601f3d908101601f1916820190925261045791810190610951565b60015b61048257604051634c9c8ce360e01b81526001600160a01b038316600482015260240161033f565b5f51602061097f5f395f51905f5281146104b257604051632a87526960e21b81526004810182905260240161033f565b6104bc83836105ee565b505050565b306001600160a01b037f000000000000000000000000000000000000000000000000000000000000000016146101fb5760405163703e46dd60e11b815260040160405180910390fd5b3361053c7f9016d09d72d40fdae2fd8ceac6b6234c7706214fd39c1cd1e609a0528c199300546001600160a01b031690565b6001600160a01b0316146101fb5760405163118cdaa760e01b815233600482015260240161033f565b7f9016d09d72d40fdae2fd8ceac6b6234c7706214fd39c1cd1e609a0528c19930080546001600160a01b031981166001600160a01b03848116918217845560405192169182907f8be0079c531659141344cd1fd0a4f28419497f9722a3daafe3b4186f6b6457e0905f90a3505050565b6105dd610643565b6103518161068c565b6101fb610643565b6105f782610694565b6040516001600160a01b038316907fbc7cd75a20ee27fd9adebab32041f755214dbc6bffa90cc0225b39da2e5c2d3b905f90a280511561063b576104bc82826106f7565b6101cb610769565b7ff0c57e16840df040f15088dc2f81fe391c3923bec73e23a9662efc9c229c6a0054600160401b900460ff166101fb57604051631afcd79f60e31b815260040160405180910390fd5b61031a610643565b806001600160a01b03163b5f036106c957604051634c9c8ce360e01b81526001600160a01b038216600482015260240161033f565b5f51602061097f5f395f51905f5280546001600160a01b0319166001600160a01b0392909216919091179055565b60605f5f846001600160a01b0316846040516107139190610968565b5f60405180830381855af49150503d805f811461074b576040519150601f19603f3d011682016040523d82523d5f602084013e610750565b606091505b5091509150610760858383610788565b95945050505050565b34156101fb5760405163b398979f60e01b815260040160405180910390fd5b60608261079d57610798826107e7565b6107e0565b81511580156107b457506001600160a01b0384163b155b156107dd57604051639996b31560e01b81526001600160a01b038516600482015260240161033f565b50805b9392505050565b8051156107f75780518082602001fd5b60405163d6bda27560e01b815260040160405180910390fd5b80356001600160a01b0381168114610826575f5ffd5b919050565b634e487b7160e01b5f52604160045260245ffd5b5f5f60408385031215610850575f5ffd5b61085983610810565b9150602083013567ffffffffffffffff811115610874575f5ffd5b8301601f81018513610884575f5ffd5b803567ffffffffffffffff81111561089e5761089e61082b565b604051601f8201601f19908116603f0116810167ffffffffffffffff811182821017156108cd576108cd61082b565b6040528181528282016020018710156108e4575f5ffd5b816020840160208301375f602083830101528093505050509250929050565b602081525f82518060208401528060208501604085015e5f604082850101526040601f19601f83011684010191505092915050565b5f60208284031215610948575f5ffd5b6107e082610810565b5f60208284031215610961575f5ffd5b5051919050565b5f82518060208501845e5f92019182525091905056fe360894a13ba1a3210667c828492db98dca3e2076cc3735a920a3ca505d382bbca2646970667358221220749ee510e8f089e9a16b2c278960e33ab27a0efea699e8095f6d31d4092b021a64736f6c634300081c0033",
  "linkReferences": {},
  "deployedLinkReferences": {},
  "immutableReferences": {
    "546": [
      {
        "length": 32,
        "start": 863
      },
      {
        "length": 32,
        "start": 904
      },
      {
        "length": 32,
        "start": 1228
      }
    ]
  },
  "inputSourceName": "contracts/BoxV1.sol",
  "buildInfoId": "8341cc19120b30c57af281458a90ad59243b3944"
}